S01B0000626174746572795F737570706C795F746573742E73726563E3
S11300000C94B5000C94C7000C94C7000C94C70062
S11300100C94C7000C94C7000C94C7000C94C70040
S11300200C94C7000C94C7000C94C7000C94C70030
S11300300C94C7000C94C7000C94C7000C94C70020
S11300400C94C7000C94C7000C94C7000C94C70010
S11300500C94C7000C94C7000C94C7000C94C70000
S11300600C94C7000C94C7000C94C7000C94C700F0
S11300700C94C7000C94C7000C94C7000C94C700E0
S11300800C94C7000C94C7000C94C7000C94C700D0
S11300900C94C7000C94C7000C94C7000C94C700C0
S11300A00C94C7000C94C7000C94C7000C94C700B0
S11300B00C94C7000C94C7000C94C7000C94C700A0
S11300C00C94C7000C94C7000C94C7000C94C70090
S11300D00C94C7000C94C7000C94C7000C94C70080
S11300E00C94C7000C94C70007634236B79BD8A78B
S11300F01A39685618AEBAAB558C1D3CB7CC576349
S1130100BD6DEDFD753EF6177231BF000000803FF6
S113011008000000BE922449123EABAAAA2ABECD12
S1130120CCCC4C3E00000080BEABAAAAAA3E000084
S11301300000BF000000803F00000000000841787C
S1130140D3BB4387D1133D190E3CC3BD4282AD2BB3
S11301503E68EC8276BED98FE1A93E4C80EFFFBEAB
S113016001C4FF7F3F000000000011241FBECFEF39
S1130170CDBFDFE7DEBF20E4A0E0B0E401C01D9204
S1130180A233B207E1F70E9411020C94F2050C9419
S1130190000085E88093A000E0E0F6E081E082833F
S11301A08083089581E080930A0608958093080669
S11301B00E94D20080910D0680FFFCCF8091100632
S11301C09091110608956150710920E030E00EC04D
S11301D0DC01A20FB31F4C91FC01E60FF71F508105
S11301E05C9340832F5F3F4F615071092617370797
S11301F07CF30895CF92DF92EF92FF920F931F93B7
S1130200CF93DF938A016901C0E0D0E011C0780187
S1130210EC0EFD1E2AE030E040E050E00E94B10503
S1130220605DF7016083622F732F842F952F2196D1
S1130230611571058105910551F706C0F801EC0FB0
S1130240FD1F80E380832196CC15DD05BCF3BE0140
S1130250C8010E94E300F801EC0FFD1F1082CE01DB
S1130260DF91CF911F910F91FF90EF90DF90CF908E
S113027008958F929F92AF92BF92CF92DF92EF92A6
S1130280FF920F931F93CF93DF934B015C018A017D
S1130290E9010E94FB026B01770FEE08FF08C7011A
S11302A0B6010E9433039B01AC01C501B4010E9455
S11302B01C024B015C0120E030E0A801C701B6013B
S11302C00E94FA007C01209749F1F801E80FF91F18
S11302D08EE28083BE010D2E000C880B990B0E94C8
S11302E033039B01AC0160E070E080E291E40E9482
S11302F02C049B01AC01C501B4010E94BF032FEF84
S1130300E21AF20A0E94FB02A8014E0D5F1D072E9D
S1130310000C880B990B9E010E94FA00DF91CF918B
S11303201F910F91FF90EF90DF90CF90BF90AF900F
S11303309F908F900895E0E4F4E020812D7F208346
S1130340208121602083BC0180E090E00E94310381
S113035020E030E040E851E40E94BF039B01AC017F
S113036060E074E284E79DE40E94890220E030E0CA
S113037040E05FE30E941D020E940203E0E2F8E015
S1130380608771878681806C8683089590912408A4
S113039095FFFCCF8093220808950F931F93CF936A
S11303A0DF938C01C0E0D0E007C0F801EC0FFD1F23
S11303B080810E94C6012196F80101900020E9F78E
S11303C03197E01BF10BCE17DF0778F38AE00E9428
S11303D0C601DF91CF911F910F9108959A0140E0DA
S11303E050E40E94390180E090E40E94CD01089518
S11303F081E00E94D600BC0180E090E00E943103BD
S11304002AEC36E24BE954E40E94890229E334EBF6
S113041048E650E40E94BF0342E050E00E94EE012F
S113042008950E94C9000E94D20080E895E20E94CB
S11304309B010E94F801FDCF5058BB27AA270E94B8
S113044034020C9485030E94770338F00E947E03E3
S113045020F039F49F3F19F426F40C9474030EF43D
S1130460E095E7FB0C946E03E92F0E94960358F382
S1130470BA17620773078407950720F079F4A6F585
S11304800C94B8030EF4E0950B2EBA2FA02D0B019B
S1130490B90190010C01CA01A0011124FF27591BC5
S11304A099F0593F50F4503E68F11A16F040A22FCB
S11304B0232F342F4427585FF3CF4695379527953C
S11304C0A795F0405395C9F77EF41F16BA0B620B3B
S11304D0730B840BBAF09150A1F0FF0FBB1F661F82
S11304E0771F881FC2F70EC0BA0F621F731F841FC5
S11304F048F4879577956795B795F7959E3F08F0EB
S1130500B0CF9395880F08F09927EE0F97958795AC
S113051008950E949D020C9485030E947E0358F066
S11305200E94770340F029F45F3F29F00C946E0396
S113053051110C94B9030C9474030E94960368F34C
S11305409923B1F3552391F3951B550BBB27AA2788
S113055062177307840738F09F5F5F4F220F331FC2
S1130560441FAA1FA9F335D00E2E3AF0E0E832D08A
S113057091505040E695001CCAF72BD0FE2F29D08D
S1130580660F771F881FBB1F261737074807AB075F
S1130590B0E809F0BB0B802DBF01FF2793585F4FD4
S11305A03AF09E3F510578F00C946E030C94B90315
S11305B05F3FE4F3983ED4F3869577956795B795B6
S11305C0F7959F5FC9F7880F911D9695879597F9C1
S11305D00895E1E0660F771F881FBB1F621773073A
S11305E08407BA0720F0621B730B840BBA0BEE1F4F
S11305F088F7E09508950E9402036894B1110C9461
S1130600B90308950E949E0388F09F5798F0B92F6C
S11306109927B751B0F0E1F0660F771F881F991F33
S11306201AF0BA95C9F714C0B13091F00E94B8031A
S1130630B1E008950C94B803672F782F8827B85F2A
S113064039F0B93FCCF3869577956795B395D9F78B
S11306503EF490958095709561957F4F8F4F9F4F95
S11306600895E89409C097FB3EF4909580957095A1
S113067061957F4F8F4F9F4F9923A9F0F92F96E9EA
S1130680BB279395F695879577956795B795F1115F
S1130690F8CFFAF4BB0F11F460FF1BC06F5F7F4FFC
S11306A08F4F9F4F16C0882311F096E911C077230E
S11306B021F09EE8872F762F05C0662371F096E817
S11306C0862F70E060E02AF09A95660F771F881FE6
S11306D0DAF7880F9695879597F9089597F99F67A4
S11306E080E870E060E008959FEF80EC08950024B6
S11306F00A941616170618060906089500240A9483
S113070012161306140605060895092E0394000C08
S113071011F4882352F0BB0F40F4BF2B11F460FF97
S113072004C06F5F7F4F8F4F9F4F089557FD9058C0
S1130730440F551F59F05F3F71F04795880F97FBA1
S1130740991F61F09F3F79F087950895121613065B
S11307501406551FF2CF4695F1DF08C0161617068A
S11307601806991FF1CF86957105610508940895BF
S1130770E894BB2766277727CB0197F908950E9451
S1130780D2030C9485030E94770338F00E947E0301
S113079020F0952311F00C946E030C94740311242F
S11307A00C94B9030E94960370F3959FC1F3950FBF
S11307B050E0551F629FF001729FBB27F00DB11DE1
S11307C0639FAA27F00DB11DAA1F649F6627B00D71
S11307D0A11D661F829F2227B00DA11D621F739F5A
S11307E0B00DA11D621F839FA00D611D221F749F68
S11307F03327A00D611D231F849F600D211D822FAF
S1130800762F6A2F11249F5750409AF0F1F08823D5
S11308104AF0EE0FFF1FBB1F661F771F881F915002
S11308205040A9F79E3F510580F00C946E030C9440
S1130830B9035F3FE4F3983ED4F3869577956795C3
S1130840B795F795E7959F5FC1F7FE2B880F911D2C
S11308509695879597F90895FA01EE0FFF1F309644
S113086021053105A1F16115710561F48038BFE3FB
S11308709B0749F168949038810561F08038BFEF97
S11308809B0741F099234AF5FF3FE1053105210516
S113089019F1E8940894E795D901AA2329F4AB2F18
S11308A0BE2FF85FD0F310C0FF5F70F4A695E0F799
S11308B0F73950F019F0FF3A38F49F779F930DD031
S11308C00F9007FC9058089546F00C94740360E070
S11308D070E080E89FE308954FE79F775F934F931D
S11308E03F932F930E9427052F913F914F915F9142
S11308F00E94BF030C94840429F416F00C946E0334
S11309000C94B8030C9474030E949E03A8F39638C5
S1130910A0F707F80F92E8942BE33AEA48EB5FE775
S11309200E94D5030F920F920F924DB75EB70F92AC
S11309300E946F05E8EEF0E00E94B6044F915F91CB
S1130940EF91FF91E595EE1FFF1F49F0FE57E06818
S11309504427EE0F441FFA95E1F74195550B0E9489
S1130960E9040F9007FE0C94DD040895DF93CF9300
S11309701F930F93FF92EF92DF927B018C01689497
S113098006C0DA2EEF010E94D203FE01E894A5917D
S11309902591359145915591A6F3EF010E943402BA
S11309A0FE019701A801DA9469F7DF90EF90FF90B8
S11309B00F911F91CF91DF9108959B01AC0160E0ED
S11309C070E080E89FE30C9489020C946E030C940D
S11309D0A3050E949E03D8F39923C9F3940F511DD4
S11309E0A3F39150504094F059F0882332F0660FED
S11309F0771F881F91505040C1F79E3F51052CF737
S1130A00880F911D9695879597F908955F3FACF0EF
S1130A10983E9CF0BB27869577956795B79508F423
S1130A20B1609395C1F7BB0F58F711F460FFE8CF9D
S1130A306F5F7F4F8F4F9F4FE3CF0C94B90316F036
S1130A400C94A3050C94740368940C946E030E9494
S1130A509E03A8F39923C1F3AEF3DF93CF931F93BF
S1130A600F93FF92C92FDD2788232AF02197660F61
S1130A70771F881FDAF720E030E040E85FEB9FE360
S1130A80883920F0803E38F021968F770E941D022D
S1130A90E0E1F1E004C00E941D02EDE3F1E00E94F8
S1130AA0B6048B01BE01EC01FB2E6F5771097595DD
S1130AB0771F880B990B0E94330328E132E741E347
S1130AC05FE30E94D203AF2D9801AE01FF900F9116
S1130AD01F91CF91DF910E9434020C948503FA0197
S1130AE0DC01AA0FBB1F9B01AC01BF5728F42227CE
S1130AF033274427507820C0B75190F4AB2F0024FB
S1130B00469537952795011CA395D2F3002071F0E3
S1130B10220F331F441FB395DAF30ED00C941C023A
S1130B2061307105A0E88A07B94630F49B01AC0135
S1130B306627772788279078309621F020833183A1
S1130B404283538308959F3F31F0915020F4879559
S1130B5077956795B795880F911D9695879597F921
S1130B600895052E97FB1EF400940E94C80557FDB6
S1130B7007D00E94D00507FC03D04EF40C94C8059E
S1130B8050954095309521953F4F4F4F5F4F0895B5
S1130B9090958095709561957F4F8F4F9F4F0895E5
S1130BA0A1E21A2EAA1BBB1BFD010DC0AA1FBB1F6D
S1130BB0EE1FFF1FA217B307E407F50720F0A21BDF
S1130BC0B30BE40BF50B661F771F881F991F1A944C
S1130BD069F760957095809590959B01AC01BD0176
S10B0BE0CF010895F894FFCF42
S9030000FC
